:020000040800F2
:1000000000500020BD0100080D0200080D0200088C
:100010000D0200080D0200080D020008000000009B
:100020000000000000000000000000000D020008B9
:100030000D020008000000000D0200080D0200087B
:100040000D0200080D0200080D0200080D02000854
:100050000D0200080D0200080D0200080D02000844
:100060000D0200080D0200080D0200080D02000834
:100070000D0200080D0200080D0200080D02000824
:100080000D0200080D0200080D0200080D02000814
:100090000D0200080D0200080D0200080D02000804
:1000A0000D0200080D0200080D0200080D020008F4
:1000B0000D0200080D0200080D0200080D020008E4
:1000C0000D0200080D0200080D0200080D020008D4
:1000D0000D0200080D0200080D0200080D020008C4
:1000E0000D0200080D020008000000000D020008CB
:1000F0000D0200080D0200080D0200080D020008A4
:100100000D0200080D0200080D0200080D02000893
:100110000D0200080D0200080D0200080D02000883
:100120000D0200080D0200080D0200080D02000873
:100130000348044B834202D0034B03B11847704776
:100140000000002000000020000000000548064BD1
:100150001B1AD90F01EBA301491002D0034B03B1C5
:100160001847704700000020000000200000000039
:1001700010B5064C237843B9FFF7DAFF044B13B1EF
:100180000448AFF300800123237010BD000000205D
:10019000000000005C02000808B5054B1BB10549D2
:1001A0000548AFF30080BDE80840FFF7CFBF00BFB0
:1001B00000000000040000205C0200080D48854695
:1001C000AFF300800C480D490D4A002302E0D458DB
:1001D000C4500433C4188C42F9D30A4A0A4C002391
:1001E00001E013600432A242FBD300F013F800F0E8
:1001F0000EF8FEE700500020000000200000002064
:100200007C020008000000201C000020FEE780B4F3
:1002100000AFFEE770B500260C4D0D4C641BA4101A
:10022000A64209D100F01AF800260A4D0A4C641BB8
:10023000A410A64205D170BD55F8043B984701367D
:10024000EEE755F8043B98470136F2E774020008E0
:10025000740200087402000878020008F8B500BFB4
:10026000F8BC08BC9E467047F8B500BFF8BC08BC97
:040270009E467047EF
:0402740099010008E4
:040278007101000808
:04000005080001BD31
:00000001FF
